:1000000094C00000EAC10000F4C10000FEC100007D
:1000100008C20000A5C00000A3C00000A1C00000ED
:100020009FC000000AC200009BC0000090C20000F8
:10003000B2C2000095C0000093C0000091C0000053
:100040008FC000008DC00000BCC1000089C000004E
:1000500087C0000085C0000083C0000081C0000090
:100060007FC000007DC000007BC0000079C00000A0
:1000700077C00000736374726163652076312E303F
:10008000310A000001000011011200020000DA0034
:100090002200220000FC001500210000EC000900F5
:1000A000030000D6000401030904C6000E02030980
:1000B00004B4001010037300630074007200610048
:1000C0006300650000000E0353006F0061007200C2
:1000D0006500720000000403090409022200010106
:1000E00000C03209040000010300000009211101D1
:1000F0000001221500070583032000010631FF09D6
:1001000074A1537508150026FF009520097581021A
:10011000C01201000200000020C016790400010195
:10012000020001000001C126000011241FBECFEF14
:10013000D4E0DEBFCDBF12E0A0E0B2E0EEE2F8E036
:1001400002C005900D92A630B107D9F724E0A6E0D1
:10015000B2E001C01D92A931B207E1F702D065C338
:100160004FCF80E8809361001092610077D18AD1EF
:100170008823E9F32FEF43ED80E321504040804096
:10018000E1F700C000002F98279A9FEF29E648E189
:10019000915020404040E1F700C0000027982F9A7E
:1001A000B1E0A0E02FE0622E1AB88FEF8BB985E5A1
:1001B000809369008FE08CBB8DB38F608DBB89B15C
:1001C0001092800081E08093810080916F008160B7
:1001D00080936F001092060284E790E011D3D2E082
:1001E000C0E040E03AE0E32E50E2C52E63E0D62EB8
:1001F000FA2E4A1709F45FC0842F90E0FC01F395B2
:10020000708131966081319630813196808121E014
:10021000811120E094E0F92EF40E811128C0DD2335
:1002200009F449C0E0910302F0910402CF01049661
:1002300044E08931940711F489E192E04091010290
:10024000509102024817590781F07083E091030230
:10025000F09104026183E0910302F0910402328381
:1002600023839093040280930302D15024C0E09131
:100270000302F0910402CF01049644E0893194070F
:1002800011F489E192E04091010250910202481775
:10029000590781F07083E0910302F09104026183B9
:1002A000E0910302F09104023283238390930402CD
:1002B00080930302D2E0EC2FF0E0EA5FFD4F8081F3
:1002C00081116CC0E0910102F09102028091030261
:1002D000909104028E179F0709F460C0208131813C
:1002E00092818381349644E0E931F40711F4E9E125
:1002F000F2E0F0930202E0930102532F52955F70F7
:100300005A3010F047E301C040E3450F4093060226
:100310003F703A3010F047E301C040E3340F3093B0
:100320000702422F42954F704A3010F037E301C068
:1003300030E3340F309308022F702A3010F037E387
:1003400001C030E3230F20930902392F32953F700B
:100350003A3010F027E301C020E3230F20930A0274
:100360009F709A3010F027E301C020E3920F909322
:100370000B028170805D80930C028091000281509D
:1003800080930002882319F0C0920D0204C0E0920D
:100390000D02E092000210920E02C0E0EC2FF0E09D
:1003A000EA5FFD4F8081882349F0D092E900809177
:1003B000E80085FF03C0CF5F808167D0A0D04F2DBC
:1003C00017CF6CBA39B040908400509085004D92A0
:1003D0005D923D921D92B1E018956CBA39B0409093
:1003E0008400509085004D925D923D926D92B1E0F7
:1003F00018956CBA39B040908400509085004D92A9
:100400005D923D926D92B1E018956CBA39B0409012
:100410008400509085004D925D923D926D92B1E0C6
:1004200018956CBA39B040908400509085004D9278
:100430005D923D926D92B1E018956CBA39B04090E2
:100440008400509085004D925D923D926D92B1E096
:1004500018958091E80080FFFCCF089580EA809392
:10046000D80086E089BD09B400FEFDCF80E8809306
:10047000D8001092E0001092180288E08093E20009
:100480007894089580911802089590911802992304
:10049000E1F093E09093E90090911602992331F0F6
:1004A0009091E80095FF11C0109216029091E4001F
:1004B0009C5F23E03091E80035FD10C03091E400EE
:1004C000931305C081E0809316028FEF0895309159
:1004D00018023323D1F32093E900ECCF8093F1008D
:1004E0008091E80085FD06C08AE38093E8001092C1
:1004F000170203C082E08093170280E00895809184
:10050000E10082FF23C08091E1008B7F8093E100B6
:10051000809118028823D1F0809117028823B1F0CE
:1005200080911702815080931702809117028111E8
:100530000DC083E08093E9008091E80085FF03C04F
:100540001092F100F9CF8AE38093E80008951F929A
:100550000F920FB60F9211248F938091E1001092A9
:10056000E10083FF0FC01092E90081E08093EB006F
:100570001092EC0082E28093ED0088E08093F0001E
:100580001092180283E08093E9008F910F900FBEC4
:100590000F901F9018951F920F920FB60F92112473
:1005A000DF92EF92FF922F933F934F935F936F935E
:1005B0007F938F939F93CF93DF93EF93FF9310924B
:1005C000E9008091E80083FFE3C0D090F1008091C2
:1005D000F100E090F1009091F100F12CF92AC09126
:1005E000F1009091F100D0E0D92B2091F100909191
:1005F000F10030E0392B92EF9093E800863009F05B
:1006000046C083E890E0FC0145915491E416F5065C
:10061000C9F4FC01329645915491C417D50791F461
:10062000FC01349645915491FC01369684912F3FFC
:10063000310519F010F02FEF30E0281708F4822F61
:100640003EEF0DC0079640E0843B9407E1F6A0C062
:10065000490F511D891B3093E8008823A9F0909120
:10066000E800292F2570D9F392FD95C0982F81328B
:1006700008F090E2FA01292F222351F3649160934C
:10068000F10021503196F8CF903249F384C0853083
:1006900049F48EEF8093E800DCDE8E2D8068809335
:1006A000E30079C0893039F5D11072C0E0921802A8
:1006B0008EEF8093E80041E083E291E04093E9000F
:1006C0009C012F5F3F4FFC0154915093EB00552349
:1006D00059F0F90124912093EC009C012D5F3F4FCC
:1006E0003196E491E093ED004F5F453011F0C90180
:1006F000E5CF8EE142C0883049F4F0E8DF1248C00F
:10070000A8DE809118028093F10015C0811117C0F6
:10071000A0DE42E8D4120AC0C093E9008091EB0049
:1007200085FB882780F91092E90001C080E0809362
:10073000F1001092F1008EEF8093E8002CC0813020
:1007400009F1833029F5E2E0DE1222C0EF2801F53D
:10075000CF779FEF9C0F9430D8F49EEF9093E800F2
:10076000C093E9008330A1F089E18093EB0081E040
:1007700090E001C0880FCA95EAF78093EA001092D2
:10078000EA0009C0F2E0DF1609F391EAD91639F060
:1007900081E28093EB0083E08093E9001DC0CD2BC4
:1007A000B9F73EEF8091E800982F9570D9F382FD5C
:1007B00013C0822F213208F080E2982F992321F074
:1007C0001092F1009150FACF281B3093E8002111CC
:1007D000E9CF803239F3DFCFFF91EF91DF91CF91F5
:1007E0009F918F917F916F915F914F913F912F9149
:1007F000FF90EF90DF900F900FBE0F901F90189515
:10080000FF92CF93DF93EC01FE01F490FF2049F0BB
:10081000FAE0FF1202C08DE038DE8F2D36DE219621
:0E082000F3CFDF91CF91FF900895F894FFCFB2
:06082E000A190219020084
:00000001FF
